:020000040800F2
:1000000000800120710200086D0200086B020008E8
:100010006B0200086B0200086B0200080000000081
:100020000000000000000000000000006D02000859
:100030006D020008000000006D0200086D0200085B
:100040006B0200086B0200086B0200086B020008DC
:100050006B0200086B0200086B0200086B020008CC
:100060006B0200086B0200086B0200086B020008BC
:100070006B0200086B0200086B0200086B020008AC
:100080006B0200086B0200086B0200086B0200089C
:100090006B0200086B0200086B0200086B0200088C
:1000A0006B0200086B0200086B0200086B0200087C
:1000B0006B0200086B0200086B0200086B0200086C
:1000C0006B0200086B0200086B0200086B0200085C
:1000D0006B0200086B0200086B0200086B0200084C
:1000E0006B0200086B0200086B0200086B0200083C
:1000F0006B0200086B0200086B0200086B0200082C
:100100006B0200086B0200086B0200086B0200081B
:100110006B0200086B0200086B0200086B0200080B
:100120006B0200086B0200086B0200086B020008FB
:100130006B0200086B0200086B0200086B020008EB
:100140006B0200086B0200086B0200086B020008DB
:100150006B0200086B0200086B0200086B020008CB
:100160006B0200086B0200086B0200086B020008BB
:100170006B0200086B0200086B0200086B020008AB
:100180006B0200086B0200086B0200086B0200089B
:100190006B0200086B0200086B0200086B0200088B
:1001A0006B0200086B0200086B02000808B54FF4F0
:1001B000C06000F04CF801210C482023002200F020
:1001C00024F82021094800F017F82021074800F002
:1001D00013F8074B00BF013BFCD12021034800F07E
:1001E0000BF8044B00BF013BFCD1EEE700000240DE
:1001F000A025260020A10700436903EA010221EAA5
:10020000030141EA0241816170472DE9F04105682F
:10021000C46800264FF0030C43FA06F7FF070FD51A
:1002200077000CFA07FE6FEA0E0E01FA07F80EEAE5
:1002300005050EEA040402FA07F748EA05053C43FF
:100240000136102EE8D10560C460BDE8F081430995
:1002500003F1804303F50E3300F01F001A680121FB
:1002600001FA00F0104318607047FEE77047000085
:100270001A4C1B491B4800225318834203D21359BE
:1002800053500432F8E7184A0021934202D2196011
:100290000433FAE7154A164C1368164D43F40073FD
:1002A0001360536F43F470035367AC4203D254F8A6
:1002B000043B9847F9E7104C104DAC4203D254F878
:1002C000043B9847F9E7FFF771FF0D4C0D4DAC4229
:1002D00003D254F8043B9847F9E700BF080300082D
:1002E00000000020000000200000002014ED00E0CD
:1002F00008030008080300080803000808030008B2
:080300000803000808030008CF
:04000005080002717C
:00000001FF
